{
  "_format": "hh-sol-artifact-1",
  "contractName": "WavePortal",
  "sourceName": "contracts/WavePortal.sol",
  "abi": [
    {
      "inputs": [],
      "stateMutability": "payable",
      "type": "constructor"
    },
    {
      "anonymous": false,
      "inputs": [
        {
          "indexed": true,
          "internalType": "address",
          "name": "from",
          "type": "address"
        },
        {
          "indexed": false,
          "internalType": "uint256",
          "name": "timestamp",
          "type": "uint256"
        },
        {
          "indexed": false,
          "internalType": "string",
          "name": "message",
          "type": "string"
        }
      ],
      "name": "NewWave",
      "type": "event"
    },
    {
      "inputs": [],
      "name": "getAllWaves",
      "outputs": [
        {
          "components": [
            {
              "internalType": "address",
              "name": "waver",
              "type": "address"
            },
            {
              "internalType": "string",
              "name": "message",
              "type": "string"
            },
            {
              "internalType": "uint256",
              "name": "timestamp",
              "type": "uint256"
            }
          ],
          "internalType": "struct WavePortal.Wave[]",
          "name": "",
          "type": "tuple[]"
        }
      ],
      "stateMutability": "view",
      "type": "function"
    },
    {
      "inputs": [],
      "name": "getTotalWaves",
      "outputs": [
        {
          "internalType": "uint256",
          "name": "",
          "type": "uint256"
        }
      ],
      "stateMutability": "view",
      "type": "function"
    },
    {
      "inputs": [
        {
          "internalType": "address",
          "name": "",
          "type": "address"
        }
      ],
      "name": "lastWavedAt",
      "outputs": [
        {
          "internalType": "uint256",
          "name": "",
          "type": "uint256"
        }
      ],
      "stateMutability": "view",
      "type": "function"
    },
    {
      "inputs": [
        {
          "internalType": "address",
          "name": "",
          "type": "address"
        }
      ],
      "name": "lastWonAt",
      "outputs": [
        {
          "internalType": "uint256",
          "name": "",
          "type": "uint256"
        }
      ],
      "stateMutability": "view",
      "type": "function"
    },
    {
      "inputs": [
        {
          "internalType": "string",
          "name": "_message",
          "type": "string"
        }
      ],
      "name": "wave",
      "outputs": [],
      "stateMutability": "nonpayable",
      "type": "function"
    }
  ],
  "bytecode": "0x608060405262000033604051806060016040528060228152602001620016cb602291396200005b60201b620007ad1760201c565b60644442620000439190620001a8565b6200004f919062000245565b600181905550620002ec565b620000fb8160405160240162000072919062000168565b6040516020818303038152906040527f41304fac000000000000000000000000000000000000000000000000000000007bffffffffffffffffffffffffffffffffffffffffffffffffffffffff19166020820180517bffffffffffffffffffffffffffffffffffffffffffffffffffffffff8381831617835250505050620000fe60201b60201c565b50565b60008151905060006a636f6e736f6c652e6c6f679050602083016000808483855afa5050505050565b600062000134826200018c565b62000140818562000197565b9350620001528185602086016200020f565b6200015d81620002db565b840191505092915050565b6000602082019050818103600083015262000184818462000127565b905092915050565b600081519050919050565b600082825260208201905092915050565b6000620001b58262000205565b9150620001c28362000205565b9250827fffffffffffffffffffffffffffffffffffffffffffffffffffffffffffffffff03821115620001fa57620001f96200027d565b5b828201905092915050565b6000819050919050565b60005b838110156200022f57808201518184015260208101905062000212565b838111156200023f576000848401525b50505050565b6000620002528262000205565b91506200025f8362000205565b925082620002725762000271620002ac565b5b828206905092915050565b7f4e487b7100000000000000000000000000000000000000000000000000000000600052601160045260246000fd5b7f4e487b7100000000000000000000000000000000000000000000000000000000600052601260045260246000fd5b6000601f19601f8301169050919050565b6113cf80620002fc6000396000f3fe608060405234801561001057600080fd5b50600436106100575760003560e01c8063449d46c01461005c57806347863a6a146100785780639a2cdc08146100a8578063a42a4663146100c6578063bd43a908146100f6575b600080fd5b61007660048036038101906100719190610b8f565b610114565b005b610092600480360381019061008d9190610b66565b6105e1565b60405161009f9190611061565b60405180910390f35b6100b06105f9565b6040516100bd9190611061565b60405180910390f35b6100e060048036038101906100db9190610b66565b610644565b6040516100ed9190611061565b60405180910390f35b6100fe61065c565b60405161010b9190610ef8565b60405180910390f35b42610384600460003373ffffffffffffffffffffffffffffffffffffffff1673ffffffffffffffffffffffffffffffffffffffff16815260200190815260200160002054610162919061117e565b106101a2576040517f08c379a000000000000000000000000000000000000000000000000000000000815260040161019990611041565b60405180910390fd5b42601e600360003373ffffffffffffffffffffffffffffffffffffffff1673ffffffffffffffffffffffffffffffffffffffff168152602001908152602001600020546101ef919061117e565b1061022f576040517f08c379a000000000000000000000000000000000000000000000000000000000815260040161022690611001565b60405180910390fd5b42600360003373ffffffffffffffffffffffffffffffffffffffff1673ffffffffffffffffffffffffffffffffffffffff168152602001908152602001600020819055506001600080828254610285919061117e565b925050819055506102cc6040518060400160405280601581526020017f25732077617665642061206d65737361676520257300000000000000000000008152503383610846565b600260405180606001604052803373ffffffffffffffffffffffffffffffffffffffff16815260200183815260200142815250908060018154018082558091505060019003906000526020600020906003020160009091909190915060008201518160000160006101000a81548173ffffffffffffffffffffffffffffffffffffffff021916908373ffffffffffffffffffffffffffffffffffffffff160217905550602082015181600101908051906020019061038b929190610a46565b50604082015181600201555050606460015442446103a9919061117e565b6103b3919061117e565b6103bd9190611284565b6001819055506104046040518060400160405280601681526020017f52616e646f6d20232067656e6572617465643a202564000000000000000000008152506001546108e5565b60326001541161058e5761044d6040518060400160405280600981526020017f257320776f6e212121000000000000000000000000000000000000000000000081525033610981565b6000655af3107a4000905042600460003373ffffffffffffffffffffffffffffffffffffffff1673ffffffffffffffffffffffffffffffffffffffff16815260200190815260200160002081905550478111156104df576040517f08c379a00000000000000000000000000000000000000000000000000000000081526004016104d690610fe1565b60405180910390fd5b60003373ffffffffffffffffffffffffffffffffffffffff168260405161050590610ee3565b60006040518083038185875af1925050503d8060008114610542576040519150601f19603f3d011682016040523d82523d6000602084013e610547565b606091505b505090508061058b576040517f08c379a000000000000000000000000000000000000000000000000000000000815260040161058290611021565b60405180910390fd5b50505b3373ffffffffffffffffffffffffffffffffffffffff167f5f7e16dc676677766a70e9c5628aa6c54ddb8b6e5188e2ae1e1f17f1ffbea71642836040516105d692919061107c565b60405180910390a250565b60046020528060005260406000206000915090505481565b600061063c6040518060400160405280601781526020017f5765206861766520256420746f74616c207761766573210000000000000000008152506000546108e5565b600054905090565b60036020528060005260406000206000915090505481565b60606002805480602002602001604051908101604052809291908181526020016000905b828210156107a457838290600052602060002090600302016040518060600160405290816000820160009054906101000a900473ffffffffffffffffffffffffffffffffffffffff1673ffffffffffffffffffffffffffffffffffffffff1673ffffffffffffffffffffffffffffffffffffffff16815260200160018201805461070990611252565b80601f016020809104026020016040519081016040528092919081815260200182805461073590611252565b80156107825780601f1061075757610100808354040283529160200191610782565b820191906000526020600020905b81548152906001019060200180831161076557829003601f168201915b5050505050815260200160028201548152505081526020019060010190610680565b50505050905090565b610843816040516024016107c19190610f1a565b6040516020818303038152906040527f41304fac000000000000000000000000000000000000000000000000000000007bffffffffffffffffffffffffffffffffffffffffffffffffffffffff19166020820180517bffffffffffffffffffffffffffffffffffffffffffffffffffffffff8381831617835250505050610a1d565b50565b6108e083838360405160240161085e93929190610f6c565b6040516020818303038152906040527fe0e9ad4f000000000000000000000000000000000000000000000000000000007bffffffffffffffffffffffffffffffffffffffffffffffffffffffff19166020820180517bffffffffffffffffffffffffffffffffffffffffffffffffffffffff8381831617835250505050610a1d565b505050565b61097d82826040516024016108fb929190610fb1565b6040516020818303038152906040527f9710a9d0000000000000000000000000000000000000000000000000000000007bffffffffffffffffffffffffffffffffffffffffffffffffffffffff19166020820180517bffffffffffffffffffffffffffffffffffffffffffffffffffffffff8381831617835250505050610a1d565b5050565b610a198282604051602401610997929190610f3c565b6040516020818303038152906040527f319af333000000000000000000000000000000000000000000000000000000007bffffffffffffffffffffffffffffffffffffffffffffffffffffffff19166020820180517bffffffffffffffffffffffffffffffffffffffffffffffffffffffff8381831617835250505050610a1d565b5050565b60008151905060006a636f6e736f6c652e6c6f679050602083016000808483855afa5050505050565b828054610a5290611252565b90600052602060002090601f016020900481019282610a745760008555610abb565b82601f10610a8d57805160ff1916838001178555610abb565b82800160010185558215610abb579182015b82811115610aba578251825591602001919060010190610a9f565b5b509050610ac89190610acc565b5090565b5b80821115610ae5576000816000905550600101610acd565b5090565b6000610afc610af7846110dd565b6110ac565b905082815260208101848484011115610b1457600080fd5b610b1f848285611210565b509392505050565b600081359050610b3681611382565b92915050565b600082601f830112610b4d57600080fd5b8135610b5d848260208601610ae9565b91505092915050565b600060208284031215610b7857600080fd5b6000610b8684828501610b27565b91505092915050565b600060208284031215610ba157600080fd5b600082013567ffffffffffffffff811115610bbb57600080fd5b610bc784828501610b3c565b91505092915050565b6000610bdc8383610e75565b905092915050565b610bed816111d4565b82525050565b610bfc816111d4565b82525050565b6000610c0d8261111d565b610c178185611140565b935083602082028501610c298561110d565b8060005b85811015610c655784840389528151610c468582610bd0565b9450610c5183611133565b925060208a01995050600181019050610c2d565b50829750879550505050505092915050565b6000610c8282611128565b610c8c818561115c565b9350610c9c81856020860161121f565b610ca581611371565b840191505092915050565b6000610cbb82611128565b610cc5818561116d565b9350610cd581856020860161121f565b610cde81611371565b840191505092915050565b6000610cf660328361116d565b91507f547279696e6720746f207769746864726177206d6f7265206d6f6e657920746860008301527f616e2074686520636f6e747261742068617300000000000000000000000000006020830152604082019050919050565b6000610d5c60298361116d565b91507f4d7573742077616974203330207365636f6e6473206265666f7265207761766960008301527f6e6720616761696e2e00000000000000000000000000000000000000000000006020830152604082019050919050565b6000610dc260268361116d565b91507f4661696c656420746f207769746864726177206d6f6e65792066726f6d20636f60008301527f6e747261637400000000000000000000000000000000000000000000000000006020830152604082019050919050565b6000610e28600083611151565b9150600082019050919050565b6000610e4260088361116d565b91507f576169742031356d0000000000000000000000000000000000000000000000006000830152602082019050919050565b6000606083016000830151610e8d6000860182610be4565b5060208301518482036020860152610ea58282610c77565b9150506040830151610eba6040860182610ec5565b508091505092915050565b610ece81611206565b82525050565b610edd81611206565b82525050565b6000610eee82610e1b565b9150819050919050565b60006020820190508181036000830152610f128184610c02565b905092915050565b60006020820190508181036000830152610f348184610cb0565b905092915050565b60006040820190508181036000830152610f568185610cb0565b9050610f656020830184610bf3565b9392505050565b60006060820190508181036000830152610f868186610cb0565b9050610f956020830185610bf3565b8181036040830152610fa78184610cb0565b9050949350505050565b60006040820190508181036000830152610fcb8185610cb0565b9050610fda6020830184610ed4565b9392505050565b60006020820190508181036000830152610ffa81610ce9565b9050919050565b6000602082019050818103600083015261101a81610d4f565b9050919050565b6000602082019050818103600083015261103a81610db5565b9050919050565b6000602082019050818103600083015261105a81610e35565b9050919050565b60006020820190506110766000830184610ed4565b92915050565b60006040820190506110916000830185610ed4565b81810360208301526110a38184610cb0565b90509392505050565b6000604051905081810181811067ffffffffffffffff821117156110d3576110d2611342565b5b8060405250919050565b600067ffffffffffffffff8211156110f8576110f7611342565b5b601f19601f8301169050602081019050919050565b6000819050602082019050919050565b600081519050919050565b600081519050919050565b6000602082019050919050565b600082825260208201905092915050565b600081905092915050565b600082825260208201905092915050565b600082825260208201905092915050565b600061118982611206565b915061119483611206565b9250827fffffffffffffffffffffffffffffffffffffffffffffffffffffffffffffffff038211156111c9576111c86112b5565b5b828201905092915050565b60006111df826111e6565b9050919050565b600073ffffffffffffffffffffffffffffffffffffffff82169050919050565b6000819050919050565b82818337600083830152505050565b60005b8381101561123d578082015181840152602081019050611222565b8381111561124c576000848401525b50505050565b6000600282049050600182168061126a57607f821691505b6020821081141561127e5761127d611313565b5b50919050565b600061128f82611206565b915061129a83611206565b9250826112aa576112a96112e4565b5b828206905092915050565b7f4e487b7100000000000000000000000000000000000000000000000000000000600052601160045260246000fd5b7f4e487b7100000000000000000000000000000000000000000000000000000000600052601260045260246000fd5b7f4e487b7100000000000000000000000000000000000000000000000000000000600052602260045260246000fd5b7f4e487b7100000000000000000000000000000000000000000000000000000000600052604160045260246000fd5b6000601f19601f8301169050919050565b61138b816111d4565b811461139657600080fd5b5056fea2646970667358221220a6bc0edcb17fb2dc05d3f1e71f23b054f1d5299b8b6e4befddde995155a6bf3b64736f6c6343000800003354686520636f6e747261637420686173206265656e20636f6e73747275637465642e",
  "linkReferences": {},
  "deployedLinkReferences": {}
}